:020000041000EA
:10000000002000081B0100100D0000007D01001001
:1000100000000000000000000000000000000000E0
:100020000000000000000000000000007901001046
:1000300000000000000000007901001079010010AC
:100040007901001079010010790100107901001088
:100050007901001079010010790100107901001078
:100060007901001079010010790100107901001068
:100070007901001079010010790100107901001058
:100080000448054B10B5834203D0044B002B00D02D
:10009000984710BD780300087803000800000000AE
:1000A00006480749091A8B10C90FC91810B549101D
:1000B00003D0044B002B00D0984710BD78030008F4
:1000C000780300080000000010B5074C2378002BCF
:1000D00009D1FFF7D5FF054B002B02D0044800E003
:1000E00000BF0123237010BDB00300080000000012
:1000F00094150010054B10B5002B03D0044905489A
:1001000000E000BFFFF7CCFF10BDC04600000000BC
:10011000B4030008941500107047FFF7FDFF72B696
:100120000F4C104DAC4209DA21686268A368043BA9
:1001300002DBC858D050FAE70C34F3E70A490B4AFF
:100140000020521A02DD043A8850FCDC08480949B4
:100150000860BFF34F8F00F06FF800F01DF8FEE766
:10016000A0150010B8150010B0030008C80500085D
:100170000000000808ED00E0FEE7FEE700B50420FF
:100180007146084202D0EFF3098002E0EFF30880E5
:10019000043000F0BBFDFEE710B562B6034800F086
:1001A000C3F8002000F0BAFEFBE7C04600200010B4
:1001B00010B5002000F090FA10BD704770B5002017
:1001C00000F0EEFC041E28D0144B186000F064FB15
:1001D000411C200000F080FF114B0400186000F06B
:1001E0004DFB411C200000F077FF04000D4B013C4B
:1001F00018600D49200000F06FFFFA210B4D01300F
:1002000028708900200000F067FF094D0130286048
:10021000002000F0C5FC074B186070BD8800000886
:100220008C0000088000000840420F009400000885
:10023000900000088400000810B5204800F0ACF8D9
:10024000B022E02130201E4CD200A35889005B0070
:100250005B08A35063588343635080235B04A3501F
:10026000184B194AE250A02204339201E250FF22B7
:10027000164BE25000F014FFC02201215200A35897
:100280008B43A350FFF799FFFFF798FF104B032014
:100290001A681300BA33198807234B43126A802166
:1002A0009B180022DA605A600A4A00F05FFA0A4896
:1002B00000F022F9094800F05BF910BDD4140010D9
:1002C0000000264084050000010002008C050000AB
:1002D0004C05000878030008CC030008A0140010A7
:1002E0009023034A5B01D058032318407047C0464F
:1002F0000000204010B5902400F047F8074B64013F
:100300001959074A1140074A0A431A5110225968DD
:100310001142FCD000F03DF810BDC0460000204066
:10032000FCFF00000100FA05F8B590260E4C76019E
:10033000070000F02AF8A3590500DB439B0701D111
:10034000FFF7D8FF80239B00E750A259074B1A40C4
:10035000074B1343A351102362681A42FCD02800B4
:1003600000F017F8F8BDC04600002040FCFF000078
:100370000300FA05000000000230800803D00130BD
:100380000238FCD1C046C0467047EFF3108072B609
:10039000704780F310887047014B18607047C04663
:1003A0004C050008044B1B681A00BA3212881B6AFD
:1003B0005043C0187047C0464C050008A02300B544
:1003C0001B06984226D015D8802825D00AD8102898
:1003D00024D0402824D000280BD0154809E0A420C0
:1003E000C00306E08022134B520090421CD098427A
:1003F000F3D100BD104B984218D0104BC018042800
:10040000EBD800F05FFEECEA0F0305000C48F0E7C4
:100410000C48EEE70020ECE70B48EAE70B48E8E77A
:100420000B48E6E70B48E4E71800E2E7A020D7E72F
:10043000FF00520006005200090000A0FFFFFF0F5E
:10044000020052000300520005005200010050005B
:10045000020050000100520010B50020FFF7A2FF7B
:100460000A4B1C682300BC331B68C0180368002BB0
:100470000ADB074B1868FFF7A1FF012263689A6047
:100480009A68002AFCD110BD0248FCE74C05000820
:100490005005000802005000064B1B68BC331B6867
:1004A000C3181B68002B03DA89B241600020704733
:1004B0000148FCE74C05000801008A000368002B96
:1004C00004DA89B2C2608160002070470048FCE70E
:1004D00001008A00064B1B68BC331B68C3181B68ED
:1004E000002B03DAC36800200B6070470148FCE76B
:1004F0004C05000801008A00024B1A68002A00D14E
:100500001860704764050008F0B52C24154E44436C
:1005100030681F000019FF241E0A26402740124C95
:100520001B0C256807602C6A46608360BA352D88ED
:100530006F433F190761370080377F01E7190B4D83
:1005400076014761A4191F043B436419236000230B
:100550008361059BC2610162002B01D01B888381EE
:10056000F0BDC046640500084C05000808100000F6
:10057000F0B50400236987B0026841680393A3685B
:1005800004AD1732C0682B806A80039BA26A059174
:100590000095E16A266A676AFFF7B6FF00213B0013
:1005A0000A0030000091FFF7AFFF2800216B00F038
:1005B00077FB0022AB5E002B06DB1F2213401E3AA6
:1005C0009A401300014A136007B0F0BD00E100E05B
:1005D000F0B585B003931B4B16001C682C235843C1
:1005E0004B4320180769E418002F27D0A569002D78
:1005F00026D13B68002B23DA134B1B6834331B785E
:100600000193436801996068029300F0EBFD0122B9
:100610008A40336812049BB2134333600123FE60A7
:10062000A361039B01996362029800F0DBFD012343
:100630008B409BB2BB60280005B0F0BD034DFAE7CC
:10064000034DF8E7640500084C05000804028A0021
:1006500007028A0073B5002642690400D568019636
:100660002B0CB34221D01B0413601368194B006993
:100670001B68BC331B68C3181B68B34215DA01A999
:10068000FFF728FFB0420CD10198E26903681E0C05
:10069000DBB29A4205D9226A9B009B58002B00D0FE
:1006A000984731002069FFF7F7FEADB2002D09D061
:1006B00063691D6000251B68636AAB4205D09847DB
:1006C0006562A56163691B6873BDA36A002BF8D0DE
:1006D0009847F6E74C0500082C2310B54343034A1E
:1006E0001068C018FFF7B6FF10BDC04664050008CB
:1006F0001A4B70B51A680C00130033331B78834211
:100700002AD9002928D00D681F212B000B400D424B
:1007100022D11100BA310988126A48431900104DDC
:100720008018286022685209934210D30021FFF7F5
:10073000B3FE002122002868FFF7C0FE011E04D18D
:100740002868FFF7A9FE002800D0064870BD62683F
:100750009E00B1500133E5E70348F7E74C05000878
:100760006805000801018A0003018A000B0010B52A
:10077000002A0DD1002914D10B4A0C4C11680A0033
:10078000BA321288096A424352182260180010BD1A
:10079000002906D006490B604A60FFF7A9FF030055
:1007A000F4E7044BF2E7C0464C0500086805000872
:1007B0008803000803018A00F7B51B4F04003B685B
:1007C0000E00002B2BD0DB681A68824229D9002545
:1007D0005B680193A94202D1FFF7D7FD0500386895
:1007E0000368002B19DA1F23012223409A40640971
:1007F000019BA4001C1921680A420CD0914321607E
:1008000000240021FFF748FE002E02D12800FFF748
:10081000C0FD2000FEBD054CF3E7054CF4E7034C9A
:10082000F7E7044CF5E7C0466805000802018800B8
:100830000301880004018A000C4B1B68002B11D0B7
:10084000DB681A6882420FD959681F234209184091
:100850001E3B8340920050581840431E9841044B61
:10086000C01870470348FCE70348FAE7680500082A
:10087000000188000201880004018A00054B1B6802
:100880001A0088321B6812689B181868000AC0B2E8
:100890007047C0464C050008044B1B681A0088329C
:1008A0001B6812689B181868000E70474C050008FA
:1008B000034BE0308000C0588006800F7047C04670
:1008C00000002640024B18694007C00F7047C04621
:1008D00000002740A6220549D2008B580220DB43A6
:1008E0009B0702D00123885818407047000026401B
:1008F00010B5FFF7EFFF0023022801D1014B1B6861
:10090000180010BD70050008084A83009B18D0220B
:100910009200985807221040042806D1C022920065
:100920009B581F22FC30134018437047000026409C
:1009300010B5FFF7E9FF88235B0098421CD00BD865
:10094000012813D0022814D0431E9841104B404276
:100950001840104BC01810BD1223FF33984210D01E
:100960001423FF33984210D00020F4E70A4B186894
:10097000F1E7FFF7BDFFEEE7084A094BD058C00F7B
:1009800001E0FFF79FFFC003E5E7044A054BF5E7E9
:1009900000EE85FF00127A006C050008000026407A
:1009A0000C0500003C050000B023154ADB00D358BD
:1009B00010B59903DB01DB0F890BC371114B01608B
:1009C000D3580F24D904DB01DB0D0381B123DB00F5
:1009D000D358C90C81801900214081721909214026
:1009E000C172D9029B009B0F8373074BC90CD3586C
:1009F00081815A05DB01520FDB0D8271038210BD2C
:100A000000002640840500008C0500008030034B68
:100A1000FF308000C058C00F7047C046000026401D
:100A20000F4B421E1B683F331B78934216D9803010
:100A30007F220C4BFF308000C3581F201A400A70E1
:100A40001A0A02404A701A0C02408A701A01C24007
:100A500000209B009B0FCA700B7170470248FCE797
:100A60004C0500080000264001004A00F0B589B09E
:100A700003AD2800FFF798FFB0230026164ADB00DD
:100A8000D358B34224DAAB7B022B21D0AC88B442DA
:100A90001ED03000ED79039FFFF74AFF220033009C
:100AA00031000190681C00F0C3FB0C00050033000E
:100AB0003A003100019800F0BBFBE6076A083243B8
:100AC0006308801859412A00230000F091FB0600BA
:100AD000300009B0F0BDC04600002640F7B5234BFA
:100AE00006001B683F331B78002B08D000283BD042
:100AF000834204D36946FFF793FF041E01D000260A
:100B000032E03000FFF782FF2300002805D06B465B
:100B10001C79023C23005A1E93416A461778547888
:100B20009578002BEBD0002CE9D0002DE7D03000D9
:100B3000FFF7FEFE002306002A002000190000F047
:100B400077FB00230C0005003A003000190000F08C
:100B50006FFBE6076A0832436308801859412A0090
:100B6000230000F045FB06003000FEBD4C050008E8
:100B700010B5041E04D1FFF779FF002806D008E065
:100B8000064B1B683F331B78834203D22000FFF7DC
:100B9000CFFE10BDFFF7A2FFEFE7C0464C050008EF
:100BA00070B50500FFF784FEE035074BAD0004008B
:100BB000E8580F231840FFF7DBFF0123A3405B0831
:100BC0001818E04070BDC0460000264030B5FF2533
:100BD00003242A000440E400A24089012940D243B2
:100BE000A14083B200280ADBC0240B4B80088000A0
:100BF000C018A400035913400B43035130BD0F200C
:100C00000340083B05489B089B001B18D86902401D
:100C10000A43DA61F2E7C04600E100E000ED00E0DF
:100C2000144B30B51B6807241A002C3212781F2A87
:100C300015D882081500A5432C1E0FD1033420407F
:100C4000A04081401B68920020339B180A00FF21BE
:100C500081401C68624011406140196030BD1A68D3
:100C6000802320401B06034380208001091889004F
:100C70008B50F3E74C050008064B10B59A68064CFC
:100C800010308300A24202D19858995010BD034AF7
:100C9000D058FBE700ED00E0000000080000001065
:100CA000F7B504000E00002801D1144C17E0002312
:100CB000C55E134B4188134F0193002D11DB2800B3
:100CC000FFF7AEFF61682800FFF780FFBB68019A5D
:100CD0000024934203D131002800FFF7CDFF20000C
:100CE000FEBD08B26168FFF771FFBB68019A9342CD
:100CF000DBD131002800FFF7BFFFD6E70100560027
:100D00000000000800ED00E0FEE7000002680A4B6A
:100D100010B51A6042685A6082689A60C268DA60E8
:100D200002691A6142695A6182699A61C269DA612B
:100D3000FFF7EAFF10BDC04690030008B0235B0533
:100D40005A782120002A01D05878C0B27047B023C9
:100D50005B059A89002A02D0988980B2704780206A
:100D60004000FBE7254B73B586000D00F4580429BD
:100D700001D0012925D100200EE0A3682B420AD121
:100D8000E36829001A685B6868460193009223684B
:100D900098471B4B1C606469002C0AD0194B984281
:100DA000EBD1012DE9D1164A174B126815489A511B
:100DB00076BD012DFCD1134B9842F4D0124B9C51BF
:100DC000F6E7022914D026006469002CFBD100202C
:100DD000002EEDD0B3682B4208D1F36829001A68C1
:100DE0005B68684601930092336898473669EFE77D
:100DF000034B1B68181EDBD01E69E8E7B40500082A
:100E0000B0050008FF0042009C0500081A4B1B6853
:100E1000190088311A6809685118096801621900B7
:100E20008C3109685218126842621A0046321278F0
:100E3000002A1FD09A68E0321268D2061AD5F22230
:100E4000DB68D2019A580260F022D2019A584260BF
:100E50000A4A9A5882600A4A9A58C260094A9A58BD
:100E60000261094A9A584261084A9A588261084ABE
:100E70009B58C3617047C0464C05000804780000C9
:100E8000087800000C78000010780000147800004A
:100E9000187800001A4B1B681900883109681A6815
:100EA0005218016A116019008C3109681A685218C9
:100EB000416A11601A0046321278002A1ED09A68E0
:100EC000E0321268D20619D5F0224168DB68D201FF
:100ED000995081680B4A9950C1680B4A9950016931
:100EE0000A4A995041690A4A99508169094A9950B8
:100EF000C169094A99500168E83299507047C04663
:100F00004C05000804780000087800000C78000008
:100F1000107800001478000018780000F7B505007C
:100F2000FFF70CFF564F01907B68002B00D06FE05D
:100F3000FFF72BFA7B680090002B00D07CE0514B30
:100F400007271C682300BA331B885F43236AFB18FA
:100F50001A68002AFCDADB68DA001ED51B0F4A4843
:100F60001E07FFF753FF22008832126823684749A3
:100F70009B181A6801980A40212862D1902000012C
:100F800002431A6022008C32126823689B181A6888
:100F90000A40104318603C4B3343802292051343B0
:100FA000226A0024BF18FB607C607B68FFF7CFFEDD
:100FB0008023344F5B00984246D1280000F068FA45
:100FC0003F6807223B00BA331E883B6A5643F3183A
:100FD0001A68002AFCDADD68EB0003D52801000955
:100FE000FFF758FF00222A4B00981D403B6AF31878
:100FF000DD605A60FFF7CDF9002C10D1204B5B6803
:10100000002B03D008210120FFF7ACFE2000FEBD1D
:1010100001210800FFF7A6FE041E00D188E7184B47
:101020005B68002B03D002210120FFF79BFE194BC8
:101030009C42EBD0184CE9E704210120FFF792FE17
:101040007DE7802040009BE73B681A00BC32196AAC
:10105000126852181168002910DBBA331B889B18DC
:101060001B68002B0ADB04230C4A11690B43136134
:10107000012D01D030BFA3E720BFA1E7054C9FE7BA
:10108000B40500084C05000874050008FF00FFFFC8
:10109000FFFFFFDF05004200FF00420000ED00E01F
:1010A000C0228020064952008B58C0059B009B0837
:1010B00003438B50802388581B0603438B50704793
:1010C0000000264002B4714649084900095649000B
:1010D0008E4402BC7047C046002243088B4274D342
:1010E00003098B425FD3030A8B4244D3030B8B4229
:1010F00028D3030C8B420DD3FF22090212BA030C32
:101100008B4202D31212090265D0030B8B4219D312
:1011100000E0090AC30B8B4201D3CB03C01A524132
:10112000830B8B4201D38B03C01A5241430B8B427A
:1011300001D34B03C01A5241030B8B4201D30B0363
:10114000C01A5241C30A8B4201D3CB02C01A52418A
:10115000830A8B4201D38B02C01A5241430A8B424D
:1011600001D34B02C01A5241030A8B4201D30B0236
:10117000C01A5241CDD2C3098B4201D3CB01C01A50
:10118000524183098B4201D38B01C01A524143095A
:101190008B4201D34B01C01A524103098B4201D348
:1011A0000B01C01A5241C3088B4201D3CB00C01AB5
:1011B000524183088B4201D38B00C01A524143082D
:1011C0008B4201D34B00C01A5241411A00D2014652
:1011D000524110467047FFE701B5002000F006F8C5
:1011E00002BDC0460029F7D076E770477047C04679
:1011F000002B11D1002A0FD1002900D1002802D0E4
:101200000021C943080007B4024802A14018029017
:1012100003BDC046D9FFFFFF03B4684601B502987D
:1012200000F034F8019B9E4602B00CBC7047C046EB
:10123000F0B5CE469946030C9C46130447461B0C5A
:101240001D000E0061460404240C80B50700100C3C
:101250004B436543414360432C0CC01820188C4617
:10126000834203D980235B029846C44449467943AC
:101270005643030C2D042D0C8919634400044019B6
:10128000C918C0BCB946B046F0BDC046F0B5574617
:101290004E464546DE46E0B504000D0092469946AE
:1012A00083B08B4230D82DD04946504600F0D8F854
:1012B00029000600200000F0D3F8331A9846203B9E
:1012C00034D49B4653465A46934042461F005346E9
:1012D00093401E00AF423BD8AF4200D179E05B465D
:1012E000A41BBD41002B00DA76E00022002300920F
:1012F000019301235A4693400193012342469340B0
:10130000009329E08242CFD900220023009201936A
:101310000C9B002B01D01C605D600098019903B00C
:10132000F0BCBB46B246A946A046F0BD42469B462D
:1013300020239B1A5246DA40414613004A468A400F
:10134000170042461F43534693401E00AF42C3D985
:1013500000220023009201934346002BD8D0FB07C4
:1013600072081A4346467B080EE0AB4201D1A24206
:101370000CD8A41A9D41012024196D410021013E81
:1013800024184D41002E06D0AB42EED9013E24195F
:101390006D41002EF8D1009801995B460019694112
:1013A000002B24DB2B005A464446D3402A00E2405F
:1013B0001C005B461500002B2ADB26009E403300F4
:1013C00026004746BE403200801A994100900191A4
:1013D0009EE7A342BCD882E74246202300219B1A05
:1013E0000022009101920122DA40019285E74246F3
:1013F00020239B1A2A0046469A402300F340444685
:1014000013432A00E2401C005B461500002BD4DA8F
:1014100042462F002023260097409B1ADE403B00C7
:101420003343CDE71C2101231B04984201D3000C58
:1014300010391B0A984201D3000A08391B09984247
:1014400001D30009043902A2105C40187047C0465D
:10145000040302020101010100000000000000007D
:1014600010B5002903D1FFF7DDFF203002E00800AE
:10147000FFF7D8FF10BDC046F8B5C046F8BC08BCA1
:101480009E467047F8B5C046F8BC08BC9E467047FB
:1014900001B40248844601BC604700BF65020008F1
:1014A0000300000001000000010000000000000037
:1014B00005036000040000000100000000000000BF
:1014C0000100000006046000080000002C05000870
:1014D000B101001000002040000024400000004046
:1014E00000000000000023400000304000003140B8
:1014F00000009F40000022400000104000009D407E
:101500002020202020101010101D1D8017007500B5
:10151000FF03060206003604102000007FC0000012
:1015200000040000000000000019324B647D000040
:10153000000000804000080B100000000000FF01C8
:101540002002001F00800004FF0810180010001483
:101550000018001C4044484C5000000008100000D7
:101560000800000004000000041000000012000049
:10157000042100000021000000160000401140027C
:10158000C41300138013A01340138813A813200062
:101590001C00000000000000F4FCFF7F01000000C0
:1015A000000000100000000880000000C0150010BE
:1015B00080000008F8020000B003000818020000D4
:1015C00000093D0000093D0000127A0000093D00BD
:1015D000A00F000004000000F5000010C90000107A
:1015E00080B230B5C400002820D0114B1868030029
:1015F000BA331A8807235343026A9A1811680029DC
:10160000FCDA3E210B4A062511600B4A0B4911609A
:10161000A3210B4AC90055500A495450006A545836
:101620001B18002058605358002BFCDA30BDC04610
:101630004C05000804012640080126401E1F00003A
:10164000000026401C05000010B54378FF2B11D187
:1016500000F00AF90400032000F026F90121C36814
:101660005B681A680A431A601A680A42FCD12000B3
:1016700000F0E2F810BDF7B507000020019100F07E
:1016800013F93F4C050023681A005033BC3216682A
:101690001B788619002B5CD000F0EEF80090032830
:1016A00018D000F0E1F80400364A374BD158002931
:1016B000FCDAD358002B37DB344D009B032B05D1CC
:1016C0000121002000F0E8F80028F9D1200000F006
:1016D000B3F80AE0062000F0E7F82368BC331B6883
:1016E000C0180368002B02DA284D2800FEBD002038
:1016F00000F09AF8264B9842F6D00023254A1900AC
:101700000120126800F0A0F8041EEDD1002000F0C6
:101710008BF81F4A204B904203D09C42E4D0013406
:10172000F4E79C42BDD1DFE7012128001B4A00F00D
:1017300093F80028C0D10198FFF752FF002F06D080
:101740003368002BFCDB00F09FF80500B5E7144D73
:10175000B3E700F089F801210400104A280000F0E6
:101760007BF8002808D1002F08D03368002BFCDB61
:1017700000F08AF80500A9E7044DA7E7084DA5E7A2
:101780004C050008000026401C0500000500520022
:101790000101880060050008F049020050050008BA
:1017A00001005000184BF7B51B6818495A6804230C
:1017B0000C6923430B61012824D030BF1300FC3394
:1017C0001B69002B1DD1A324114B12481249E400C0
:1017D00007681E590D680195104D056006251D51BD
:1017E0003E240C600E4C3E351D511D59002DFCDA77
:1017F0000C4CFC321461A322D20007609E50019B66
:101800000B60F7BD20BFD9E74C05000800ED00E0F4
:101810000000264008012640040126401E1F00004B
:101820001C050000AAAAAAAA01B40248844601BC69
:10183000604700BF3908001001B40248844601BC6B
:10184000604700BF9303001001B40248844601BC06
:10185000604700BFD105001001B40248844601BCB6
:10186000604700BFBD04001001B40248844601BCBB
:10187000604700BF8B03001001B40248844601BCDE
:10188000604700BFE102001001B40248844601BC79
:10189000604700BF5904001001B40248844601BCEF
:1018A000604700BFB907001001B40248844601BC7C
:1018B000604700BFA503001000000000000000000A
:1018C0000000000000000000000000000000000018
:1020000000F80F08712300100D000000E5230010F8
:10201000E5230010E5230010E52300100000000078
:10202000000000000000000000000000E12300109C
:10203000E123001000000000E1230010E123001064
:10204000E1230010E1230010E1230010E123001040
:10205000E1230010E1230010E1230010E123001030
:10206000E1230010E1230010E1230010E123001020
:10207000E1230010E1230010E1230010E123001010
:1022E0000348044B834202D0034B03B118477047A5
:1022F000E82B0008E82B0008000000000548064B0A
:102300001B1AD90F01EBA301491002D0034B03B1F3
:1023100018477047E82B0008E82B00080000000071
:1023200010B5064C237843B9FFF7DAFF044B13B11D
:102330000448AFF300800123237010BDD82C00089F
:10234000000000004449021008B5054B1BB10549C7
:102350000548AFF30080BDE80840FFF7CFBF00BFDE
:1023600000000000DC2C0008444902107047704750
:10237000FFF7FCFF72B6144C144DAC4209DA216829
:102380006268A368043BA2BFC858D050FAE70C3477
:10239000F3E70F490F4A00209142BCBF41F8040BFC
:1023A000FAE70D480D490860BFF34F8F00F084F83D
:1023B00000F068F8FFF7DBFF1AF0E2FF02F050FED2
:1023C0001BF002F8FEE700005049021068490210B5
:1023D000D82C00085C4302080020000808ED00E04B
:1023E000FEE7FEE700B504207146084202D0EFF395
:1023F000098002E0EFF30880043013F0ADF9FEE746
:1024000008B501200FF0C2FA08BD704710B50020D2
:1024100013F06CF800B910BD0446124B186012F0AE
:10242000FFF80130B4FBF0F00F4B186012F010F918
:102430000130B4FBF0F40D4B1C60013C0C4BA3FBD2
:1024400004239B0C01330B4A13700B4BA3FB043486
:10245000A4090134094B1C60002013F047F8084B15
:102460001860D8E7E8220008EC220008E022000803
:1024700083DE1B43F4220008D34D6210F0220008D3
:10248000E422000808B509480EF090FBFFF7BDFFF5
:10249000FFF7BCFF0022114603200FF0D3FA0448D7
:1024A0000FF016F903480FF075F908BDCC3B021088
:1024B000F42C000840F30110EFF3108172B6074AC4
:1024C000D2F8883043F47003C2F88830BFF34F8FDE
:1024D000BFF36F8F81F31088704700BF00ED00E0FD
:1024E00008B500F0B9F800F00FF800F049F800F076
:1024F00057F808BD08B500F019FA00F02FF800F001
:1025000047F800F077F808BD08B50021012011F068
:102510008DFF40F2BF320021012011F0F9FD0021B2
:10252000012011F041FF0F21012011F07FFF002257
:102530000F21012011F0ECFD0F21012011F034FFDB
:102540000721002011F072FF00220721104611F030
:10255000DFFD0721002011F027FF08BD08B5054861
:102560000AF08EF904480AF08BF904480AF088F959
:1025700008BD00BF78F301107CF3011074F3011063
:1025800008B500220121352011F0D2FE08BD00005F
:1025900008B502480AF074F908BD00BF80F30110C5
:1025A00010B50E4C0E4A002120460EF0B3FE0D4A27
:1025B000012120460EF0AEFEA4F580640A4A0421F3
:1025C00020460EF0A7FE094A062120460EF0A2FE84
:1025D000074A072120460EF09DFE10BD000731403E
:1025E0003CF4011074F40110FCF30110C4F3011069
:1025F0008CF3011008B50E480AF042F90D480AF0B4
:102600003FF90D480AF03CF90C480AF039F90C483A
:102610000AF036F90B480AF033F90B480AF030F9A2
:102620000A480AF02DF90A480AF02AF908BD00BF45
:1026300034F4011038F4011084F3011088F3011010
:1026400070F40110A8F4011030F40110F8F3011037
:10265000C0F30110FEE7000030B583B0072200216F
:10266000322011F065FE9621002013F0C7F813F018
:1026700033F8C0B99B4BD3F8004F04F03F0413F07C
:102680001BF830B1012013F00DF8974B9B6C002B19
:1026900026DB944BC3F8004F12F0C0F812F0B4F8E8
:1026A000012012F0CFF8012013F0B8FB13F05EFB0D
:1026B00013F038FC13F022FC12F082FA00210846D5
:1026C00012F04AF8002011F0B5FF012011F09AFF36
:1026D000002011F027FF854B1B6893F8434006E06C
:1026E0000620FFF7B7FF204612F0A6FB013C002CA6
:1026F000F9D10021012012F0AFF9002012F01AF8F0
:10270000002800F0CE800021084612F0A5F9002133
:10271000084611F0EFFF764D002400942346224630
:10272000214628460EF02CFF009423462246012124
:1027300028460EF025FF6F4812F048F8002840F0B8
:10274000BC80012011F04EFF6B4D00240094234605
:102750002246062128460EF013FF00942346224607
:10276000072128460EF00CFF962364220D216348B2
:1027700012F096F8624B984200F0A28040F6B83012
:1027800012F02CF95F4B984200F09D80002011F070
:1027900051FF002011F036FF002011F0C3FE002190
:1027A000012012F059F90021084612F055F90021D4
:1027B000022012F051F90021032012F04DF90021FE
:1027C000042012F049F90021052012F045F94E4885
:1027D00012F010FA002879D14C4812F0BBFA002808
:1027E00077D10121002011F085FF0021084611F06A
:1027F000B3FF4749012012F045FB00286CD142F29B
:102800001071012012F066FC002868D1012103201C
:1028100011F070FF0121032011F09EFF032011F041
:1028200023FF11F0D5FE002011F0A6FE002011F0CC
:10283000B9FE11F0C3FE0021084613F0D3FB0120BE
:1028400011F08AFE11F0E0FF012011F0FBFF602182
:10285000002012F0D3FFFFF7D9FD0021084613F046
:10286000C1FB2C480AF00CF800B101BE2A480AF05E
:1028700007F800B101BE29480AF002F800B101BE14
:10288000274809F0FDFF00B101BE264809F0F8FF16
:1028900000B101BE244809F0F3FF00B101BE03B04E
:1028A00030BD12F007F940F2111398427FF42BAFBC
:1028B0000121002011F01EFF25E70520FFF7CAFEC9
:1028C0000120FFF7C7FE0120FFF7C4FE0420FFF739
:1028D000C1FE0420FFF7BEFE0320FFF7BBFE03206E
:1028E000FFF7B8FE00F0274000002740303502080F
:1028F0000000314040420F000006314000366E01BA
:1029000001004A0002004A00ACF40110400D03002F
:10291000D8F40110C0F40110C4F40110C8F401107F
:10292000CCF40110D0F40110D4F4011008B5034820
:1029300011F0B0FFFFF76AFD08BD00BF00366E0161
:1029400008B5044813F0DCF808B1002008BD0248BF
:10295000FCE700BFF82200080000020610B509F0ED
:102960008DFF044638B154B1FFF7BAFDFFF7C2FD41
:102970005CB1204610BD0CF01DFD0446F3E740F6A7
:10298000E44100200CF05EFDEEE7FFF7D9FF0446BE
:10299000EFE7000008B503460322A22108460CF029
:1029A00060FD00B101BE024B04225A6108BD00BFA8
:1029B00000E100E008B5034816F09EF8024816F062
:1029C0005DFD08BD8C3E021095290010014B0422CC
:1029D0005A61704700E100E0044B0422C3F89420E0
:1029E000BFF34F8FBFF36F8F704700BF00E100E070
:1029F000012303E0013A03EB83035B00B1FBF3FC2B
:102A0000BCF1090FF6D8012AF4DCB1FBF3F203FBA9
:102A100012113032027001309C46054AA2FB03239A
:102A2000DB08BCF1090FF0D800230370704700BF2A
:102A3000CDCCCCCC08B5014601481AF0D3FA08BD7C
:102A4000E0F4011030B587B008F066F804460F4B8B
:102A500083FB0023C517C5EBA3150022294601A857
:102A6000FFF7C6FF3A2300F8013B03224FF47A71C7
:102A700001FB1541FFF7BCFF2023037000234370C7
:102A800001A8FFF7D7FF07B030BD00BFD34D6210DC
:102A900010B50446024605494FF0004015F06EFBA4
:102AA00008F00AF8002CFDD110BD00BFE4F40110BD
:102AB00010B5044608F000F8FFF7C4FF2046FFF702
:102AC000B9FF0348FFF7B6FF07F0E2FF10BD00BFF4
:102AD00060FE011010B5044607F0EEFFFFF7B2FFED
:102AE0000548FFF7A7FF2046FFF7A4FF0348FFF7BD
:102AF000A1FF07F0CDFF10BDF0F4011060FE011042
:102B000008B5FFF72BFF00B101BE012306221946CD
:102B10002B2009F0BDFB62B608BD00B583B04FF4B1
:102B2000E1330093FF231A462821292013F06EFC7D
:102B300018B9012003B05DF804FB0020FAE700009B
:102B400000B583B012F0E2FDCDE90001054B03F1C1
:102B5000080202A911E9030082E80300184603B045
:102B60005DF804FB14230008BFF34F8F0549CA68C2
:102B700002F4E062044B1343CB60BFF34F8F00BFFE
:102B8000FDE700BF00ED00E00400FA05024A13680B
:102B900001331360704700BFB42E000808B5064823
:102BA0000DF03CF8054B1B68054A02FB03F30021BE
:102BB0001818494108BD00BF7C2E0008B42E00083B
:102BC000A086010030B587B0194B0FCB06AC04E9E5
:102BD0000F000022FF2117480CF086FF10B10020E3
:102BE00007B030BD02A913480CF0CEFF08B1002099
:102BF000F6E711490F480CF0E3FE08B10020EFE7BB
:102C00000C4C04F1080500220C4928460CF056FD36
:102C1000012200920223294620460CF08FFD204617
:102C20000CF08CFF08B90120DAE70020D8E700BFDC
:102C300004F501107C2E0008A08601008D2B0010E9
:102C4000074B1B689B6903F52073012800D901BE5F
:102C500010B908225A60704708229A60704700BF76
:102C60003035020838B5054672B600281BDA4542F1
:102C700019E0642012F0FAFC0020FFF7E1FF4FF4A6
:102C8000967012F0F3FC6410012C08DD0120FFF7B0
:102C9000D7FF14F0010FECD04FF49670EAE740F63E
:102CA000B83012F0E3FCAC1CF0E700F54030012333
:102CB00080F82C3070470000F0B5594B9FED4C6BFD
:102CC00083ED006B9FED4C7B83ED027B80241C61C8
:102CD00001225A619A61DA61524D1D62524959626C
:102CE00052499962C821D9621C634FF4C05159639B
:102CF000262098634E4EDE6341A7D7E90067C3E9FB
:102D0000106741A7D7E90067C3E9126740261E652F
:102D100020265E6503269E65DA65464E1E66464E93
:102D20005E66464E9E662126DE661967596798677D
:102D3000434EDE6736A7D7E90067C3E9206736A7A9
:102D4000D7E90067C3E92267C3F890401027C3F8AA
:102D50009470C3F89820C3F89C20C3F8A050394E53
:102D6000C3F8A460384EC3F8A8600A26C3F8AC6064
:102D70004FF40066C3F8B060C3F8B410C3F8B800ED
:102D8000DFF8D4C0C3F8BCC083ED306B83ED327B79
:102D9000C3F8D040C3F8D470C3F8D820C3F8DC20FF
:102DA000C3F8E050294AC3F8E420294AC3F8E820D0
:102DB0006422C3F8EC20C3F8F060C3F8F410C3F841
:102DC000F800244AC3F8FC2003F5807E9C46BCE84A
:102DD0000F00AEE80F00BCE80F00AEE80F00BCE843
:102DE0000F00AEE80F009CE80F008EE80F00F0BD6A
:102DF000B8D114350E00000018DF7C500E00000022
:102E00000029DF9E0D00000000514A8D0E000000D9
:102E1000A0D514350E00000000E37C500E00000029
:102E2000C82E02082DE72300654282382EF9A33B05
:102E30002423000880841E00BB2C9D391820F63CFA
:102E4000BC230008AFA591387DE6CC3DD5B89238BB
:102E5000F8C5233CEC240008542400082DE9F04F69
:102E600085B01E4603F5403393F82C3013B905B0F6
:102E7000BDE8F08F8346884691463A4B1B683A4A34
:102E800002EB831206F54033526B596A304613F059
:102E9000D7FB48B906F54033002283F82C205C6A42
:102EA000996A59629C6213E030481AF001F9F1E71F
:102EB0002F490B6834F812502E4820F813502E4D2D
:102EC00028680130286001330B609BB20B6001322F
:102ED000244B1F68244B03EB87135B6B9342E7D8AB
:102EE0004FF0000E70461CE0244D2C68214A32F849
:102EF00014A000F50042103206EB4202A2F804A032
:102F0000DFF874A0DAF80020013ACAF80020013492
:102F10002C60A4B22C60013101309942E4D30EF14F
:102F2000010E114B03EB87131B6B134A126893427C
:102F300001D80021F1E7BEF1000F04D106F54036BB
:102F40000023336393E70E4B0293CDF8049006F50C
:102F500040331B6B0093734600224146584605F0F0
:102F6000CDF9EBE7C42E0208C82E020814F50110B3
:102F7000C02E0008C42E0008B82E0008BC2E000881
:102F8000852F001008B5029A049901F5803124318B
:102F9000039803F02BFD08BD38B504460D4600210B
:102FA000184613F003FC034B00222946204604F088
:102FB0007CFD38BD38F5011038B505460C460E4B82
:102FC00003EB81139A6BD96B13F0BAFB48B90A4B28
:102FD00003EB8413596B284613F000FB30B9012032
:102FE00038BD06481AF064F80020F9E704481AF0E2
:102FF0005FF80020F4E700BFC82E020848F5011072
:1030000060F5011070B582B005460E461C4601AB56
:10301000012204F083FB01991B4B19602046FFF746
:10302000CBFF10BB194B03223146284604F03DFD6F
:103030000821204613F04CFBF0B90023144A13601A
:10304000144A1360144A136004F5403282F82C309D
:103050000121204613F0AAFB90B9104B0122314602
:10306000284604F022FD02B070BD0C4B012231460F
:10307000284604F01AFDDBE709481AF019F8DCE7E6
:1030800008481AF015F8E8E7C42E020880F5011088
:10309000C02E0008BC2E0008B82E0008A0F50110B4
:1030A000B4F50110D0F5011030B583B0044600F13D
:1030B000240200F540335A6200F5004224329A623D
:1030C000002283F82C201A63254B1D68AA6902F59B
:1030D000C06295F887C05CF8025025F001054CF8F5
:1030E00002501D68AA6902F5C06295F887C05CF8B5
:1030F000025045F440354CF802501D68AA6902F5AB
:10310000C06295F887C05CF8025025F004054CF8C1
:1031100002501A68936903F5C06392F88750EA5821
:1031200042F44012EA500F4BDA6B9B6B0193009212
:103130005923632213F098FC60B901940A4B009361
:10314000032358220749898E204613F07BFB012078
:1031500003B030BD054819F0ABFF0020F8E700BF11
:1031600030350208C82E0208AB2C0010E4F501101F
:103170002DE9F04104462A4D05F58073D0F80A0088
:10318000D4F80E1003C305F58473D4F81200D4F8F4
:10319000161003C3D4F81A70C5F81071D4F81E8045
:1031A000C5F81481D4F82260C5F81861D4F8263027
:1031B000C5F81C31D4F82A30C5F8203104F12E03AB
:1031C0001B68C5F8243104F132031868C5F82801DA
:1031D00018F0BAFB02460B460020124918F036FDE3
:1031E0000022114B18F052FA18F0B6FEC5F82C0167
:1031F00008FB07F707FB06F6C5F830614FF4C0532C
:10320000C5F83431D4F80230C5F83831D4F8063076
:103210009B0002331C44C5F83C41BDE8F08100BF6F
:10322000C82E02080000F03F0000E03F2DE9F04109
:1032300086B004460D460023059304F051FB002898
:1032400059D104AB02222946204604F0E5FA0028B1
:1032500058D1049808B1FFF78BFF05AB012229462E
:10326000204604F05BFA059A2C4B1A602C4B03EBBA
:103270008213D3ED0B7A2B4B039301230293F8EEC9
:10328000677ACDED017A042300930223264A29466A
:10329000204604F05BFB061E38DB214F059B07EB45
:1032A00083139B694FF00008CDF8048000931F4BF7
:1032B00032462946204604F09BFB059B07EB83130F
:1032C0005B69CDF804800093194B324629462046AD
:1032D00004F08EFB059B07EB83173B69CDF8048058
:1032E0000093144B32462946204604F081FB01200E
:1032F00006B0BDE8F081104B03222946204604F0B9
:10330000D4FBF4E70D4819F0D3FEA2E70C4B0322DF
:103310002946204604F0C9FBE9E700BFC42E020895
:10332000C82E02084CF6011044F6011068F6011090
:1033300070F6011078F601100CF6011028F6011055
:1033400050F601102DE9F04194B005460E4646486E
:1033500019F048F8002860D00446434A002119F0CB
:10336000A7FFFFF7A9FC31462046FFF79DFE064662
:10337000002857D00023089309930A930B930C93CA
:103380000D930E930894394B0A93394B0B93394B99
:103390000C93394B0D93EE460DF1200CBCE80F0059
:1033A000AEE80F009CE807008EE80700334B344A74
:1033B0000121284604F00CF8B0F100083CDB0FAE08
:1033C000304F0FCF0FC63B683360052303930FAB1D
:1033D0000293002301932C4B00932C4B0122414676
:1033E000284604F030F978BB00230193284B009362
:1033F000284B02224146284604F0A2F960BB22462F
:1034000041462846FFF712FF064688B9224819F0C0
:103410004FFE204618F0EEFF0AE0204819F048FE63
:10342000002605E01E4819F043FE204618F0E2FF92
:10343000304614B0BDE8F0811A4819F039FE204634
:1034400018F0D8FF0026F3E7174819F031FE2046A0
:1034500018F0D0FF0026EBE7144819F029FE2046AB
:1034600018F0C8FF0026E3E7340003002D320010F7
:1034700005300010992F00105D2E0010B8F60110D5
:1034800044F60110C4F7011004F70110F8F601101A
:1034900030F7011024F7011064F7011080F60110D5
:1034A0009CF60110D4F601100CF7011044F701103E
:1034B00008B5049991F84831032B1ED8DFE803F0D2
:1034C00002111708029A7C31039803F08FFA08BDA5
:1034D0002AB97C31029A039803F088FAF7E7DC31C5
:1034E000F8E7029A7C31039803F080FAEFE7029A3A
:1034F000DC31039803F07AFAE9E70020E7E70000FF
:1035000008B52DED028B08EE100AF0EE408A084651
:1035100018F0F8F902460B4600204FF0804117F0F2
:1035200021F90022094B18F067FA18F03DFD07EE6B
:10353000900AB8EEC88A9FED067A28EE078A28EE30
:10354000280A80EE270ABDEC028B08BD0000E03F90
:103550000AE81C4108B52DED028B08EE100AF0EECA
:10356000408A084618F0CEF902460B4600204FF07C
:10357000804117F0F7F80022074B18F03DFA18F0D9
:1035800013FD07EE900A88EEA70AB8EEC88A28EE67
:10359000000ABDEC028B08BD0000E03F30B58BB0E7
:1035A000044628220021684619F082FE214668461A
:1035B00005F09DFE002840F0B68094F84831002BBD
:1035C00049D19DF824209DF92430002B80F2AE8053
:1035D00012F0400F01D10020A6E004F17C05D4F8E0
:1035E0003C3103EB430305EBC305217B94ED1A0A41
:1035F000BDF90000FFF784FF85ED000A217B94ED03
:103600001A0ABDF90200FFF77BFF85ED010A217B55
:1036100094ED1A0ABDF90400FFF772FF85ED020A66
:10362000217B94ED1B0ABDF90C00FFF793FF85ED9C
:10363000030A217B94ED1B0ABDF90E00FFF78AFFF8
:1036400085ED040A217B94ED1B0ABDF91000FFF7FC
:1036500081FF85ED050A94F84831032B0ED0012B2C
:103660000CD094F84831023BDBB2012B30D9D4F8AE
:103670003C310133C4F83C31012055E09DF9243040
:10368000002B01DB00204FE004F17C05D4F83C3135
:1036900003EB430305EB8305217B94ED1A0ABDF987
:1036A0000000FFF72DFF85ED000A217B94ED1A0A3B
:1036B000BDF90200FFF724FF85ED010A217B94ED9F
:1036C0001A0ABDF90400FFF71BFF85ED020AC8E7DF
:1036D0009DF8243013F0400F01D1002024E004F1C4
:1036E000DC05D4F83C3103EB430305EB8305217B78
:1036F00094ED1B0ABDF90C00FFF72CFF85ED000AC5
:10370000217B94ED1B0ABDF90E00FFF723FF85ED29
:10371000010A217B94ED1B0ABDF91000FFF71AFF87
:1037200085ED020AA3E700200BB030BD0020FBE7C7
:10373000F0B585B005460E4617461C46FFF72EFA33
:10374000236FA26F9B18626F42F1000C984271EBDD
:103750000C0C01D205B0F0BD206761672046FFF771
:103760001DFF50B9D4F844110131C4F844110129A6
:10377000F0D0234819F036FCECE7D4F83C21D4F81B
:1037800040319A4204DA2046FFF708FF0028F4D1BE
:10379000D4F84431012B1DD0D4F84411F1B9D4F838
:1037A0003C31D4F840219342D4DB164A029201976F
:1037B000D4F84421009200223146284604F09EFDB0
:1037C00094F84831032B0DD00023C4F84431C4F8D9
:1037D0003C31BFE70023C4F84431DDE70A4819F063
:1037E00001FCDCE7074B02930197D4F844310093C6
:1037F000D4F83C3101223146284604F07FFDE3E74E
:10380000D8F70110B134001008F8011030B583B0BA
:1038100004460D464FF48072ADF804201A4602218A
:1038200001A805F0F8FC044B00222946204604F0CC
:103830003CF903B030BD00BF38F501102DE9F0436D
:10384000A1B004460D4690461E469DF8A070002289
:103850000023C0E91C238B4B93FBF1F38367002308
:10386000C0F84431C0F83C3107EE908AF8EEE77AB0
:10387000C0ED1A7A07EE906AF8EEE77AC0ED1B7A8F
:1038800080F848718DF8103001238DF848300246D9
:10389000022104A806F04EF9002840F0E980C82D66
:1038A00041D026DC322D35D0642D08D108238DF887
:1038B00014308DF84C300223C4F840310AE0192D41
:1038C00040F0D78006238DF814308DF84C3001235A
:1038D000C4F84031A8F102030E2B00F2CD80DFE8DE
:1038E00003F034CB45CBCBCB49CBCBCBCBCBCBCB6A
:1038F0004D00B5F5C87F1FD0B5F5487F08D10B2323
:103900008DF814308DF84C300823C4F84031E1E7CD
:103910000020AEE007238DF814308DF84C300123E1
:10392000C4F84031D6E709238DF814308DF84C30B7
:103930000423C4F84031CDE70A238DF814308DF804
:103940004C300823C4F84031C4E700238DF8173009
:10395000B6F5FA7F47D015DDB6F57A7F47D0B6F5D4
:10396000FA6F19D100238DF850301AE001238DF839
:103970001730EDE702238DF81730E9E703238DF8C0
:103980001730E5E77D2E09D0FA2E03D103238DF8F9
:10399000503006E000206CE000206AE004238DF83F
:1039A000503000228DF8102001238DF848308DF81A
:1039B00015208DF8163002218DF84D108DF851200C
:1039C0008DF84E30224604A805F0FAFF0346002881
:1039D00054D14FF48072ADF80C20032F11D8DFE8DA
:1039E00007F00A151C0A02238DF85030D9E701238D
:1039F0008DF85030D5E72246022103A805F0E9FBF7
:103A00000346002B3CD10027B94615E02246012190
:103A100003A805F0DEFB0346F3E7224601210DF182
:103A20000D0005F0D6FB0346EBE7B9F1040F0DDC02
:103A300064200BF011FD0137132F17DC2046FFF730
:103A4000ADFD0028F1D009F10109EEE70023C4F82B
:103A50003C31CDF804800096D4F840312A4694F8E1
:103A60004811094819F0BEFA012002E0002000E0E8
:103A7000012021B0BDE8F0830020FAE70120F8E73B
:103A80000120F6E7A086010028F801102DE9F04397
:103A900087B004460D461E4605AB012203F03EFEEC
:103AA000059A032A5BD8DFE802F0021510123227CC
:103AB00004AB02222946204603F030FE049A032A72
:103AC0004DD8DFE802F0091F191CC827F0E74FF4B2
:103AD000C877EDE76427EBE74FF0020803AB03225A
:103AE0002946204603F01AFE039B042B37D8DFE853
:103AF00003F00C241B1E21004FF00808EEE74FF0E6
:103B00001008EBE74FF00408E8E74FF07D0902AB3F
:103B100004222946204603F001FE029B032B1ED8F7
:103B2000DFE803F00E2420224FF4FA79EFE74FF498
:103B30007A79ECE74FF4FA69E9E74FF0FA09E6E73A
:103B4000002300934B46424639463046FFF776FE47
:103B500070B90B4B03222946204603F0A6FF07B09D
:103B6000BDE8F0830123ECE70223EAE70323E8E75B
:103B7000044B01222946204603F097FFEFE700BFE0
:103B800080F5011084F8011008B5012242720B4A39
:103B900082630B4AC2630B4A026441602E22C281D7
:103BA0000022426180F8482106F04AF808B100205E
:103BB00008BD054819F07CFA0120F9E7FB3B00102D
:103BC000D73B0010CD3B00109CF8011008B580B227
:103BD00011F068FD08BD00B585B0844618460A237B
:103BE000029392B20192009101236246682109F08A
:103BF00089FA40B205B05DF804FB00B585B0844693
:103C000018460A23029392B2019200910123624660
:103C1000682109F0C3FA40B205B05DF804FB00006A
:103C20002DE9F0432DED028B8FB004460D4605AB18
:103C3000012203F073FD38B9059B032B00F2DD80F0
:103C4000DFE803F00A241F216E4B03222946204699
:103C500003F02BFF012022E0322604AB0422294688
:103C6000204603F05BFD98B92946204603F038FE54
:103C7000D0B9049B032B00F2C280DFE803F01D7E65
:103C80007077C826E9E74FF4C876E6E76426E4E7EC
:103C90005D4B03222946204603F007FF01200FB0A9
:103CA000BDEC028BBDE8F083584B03222946204629
:103CB00003F0FBFE0120F2E70027554AB946554BB9
:103CC000B84607EE906AB8EEE78A039301230293A1
:103CD0008DED018A0723009302232946204603F035
:103CE00035FE061E51DBB8F1000F56D0FFB1CDF8FE
:103CF0000C90012302938DED018A07230093022388
:103D00003A462946204603F021FE071E5EDB0BAB38
:103D1000414A07CA83E807000193032300933F4BFE
:103D20003A462946204603F063FE002856D106ABEA
:103D3000394A07CA83E80700019303230093374BEE
:103D400032462946204603F053FE00284DD1344B1D
:103D500000222946204603F0A8FE01209FE7002705
:103D6000304AB946304B4FF00108AAE700272F4AE6
:103D7000B9462F4B4FF00208A3E72C4F294ADFF832
:103D8000B090294B4FF003089BE72A4B03222946AA
:103D9000204603F08AFE012081E7274A09AB92E81A
:103DA000030083E80300019302230093234B324670
:103DB0002946204603F01CFE002897D0204B032202
:103DC0002946204603F071FE012068E7194B0322C3
:103DD0002946204603F069FE012060E7184B0322C4
:103DE0002946204603F061FEF6E7154B03222946DB
:103DF000204603F05AFE012051E700204FE7002043
:103E00004DE700BFF4F8011014F901100CF6011091
:103E1000BCF80110C8F80110DCFA011064F90110B7
:103E20006CF90110DCF80110ECF80110D4F8011065
:103E3000E4F8011050F60110D4FA011038F901101D
:103E400040F90110F0B5A1B004460E464FF4A87039
:103E500018F0C8FA002800F0958005464FF4A872C3
:103E6000002119F025FA31462846FFF78DFE064657
:103E7000002838D00023089309930A930B930C93DE
:103E80000D930E930895414B0A93414B0B93414B75
:103E90000C93414B0D93EE460DF1200CBCE80F0046
:103EA000AEE80F009CE807008EE807003B4B3C4A59
:103EB0000121204603F08CFA071E65DB0FAE394B5B
:103EC0000FCB86E80F00042303930296002301938F
:103ED000354B0093354B01223946204603F0B3FBA6
:103EE00038B1002602E0284618F084FA304621B0A6
:103EF000F0BD13AE2E4B0FCB86E80F0004230393C7
:103F00000296022201922B4B00932B4B39462046FE
:103F100003F099FB08B10026E8E717AEDFF8B0C060
:103F2000BCE80F000FC6DCF80030336005230393B4
:103F300017AB029302230193204B0093204B0322E3
:103F40003946204603F07FFB08B10026CEE71CAEC1
:103F50001C4B0FCB86E80F0004220392029600232D
:103F60000193194B0093194B3946204603F06BFB24
:103F700008B10026BAE72A4639462046FFF750FE28
:103F80000646B3E70026B1E70026AFE7213C001064
:103F90008D3A00100D3800103137001080F90110F3
:103FA000A8F90110E8FA0110B8F90110ACF90110F4
:103FB000F8FA0110DCF90110D0F9011004FA01102F
:103FC000F8F901101CFB01102CFA011024FA011061
:103FD00008FB011008B5029A0499BC31039802F05D
:103FE00005FD08BD10B586B00446034601220DF15B
:103FF0001701302006F00AF800BB9DF8173013F0C7
:10400000040F01D100201AE0214601A806F018FB98
:10401000B8B904F1BC03D4F81C2102EB420203EB53
:104020008203029A1A60019A5A60039A9A60D4F83D
:104030001C310133C4F81C31012000E0002006B01F
:1040400010BD0020FBE70000F0B585B005460E4628
:1040500017461C46FEF7A2FDD4F8B030D4F8B820BD
:104060009B18D4F8B42042F1000C984271EB0C0C70
:1040700001D205B0F0BDC4F8B000C4F8B4102046B9
:10408000FFF7B0FF50B9D4F824110131C4F824115E
:104090000129EED01A4818F0A5FFEAE7D4F81C2150
:1040A000D4F820319A4204DA2046FFF79BFF00281B
:1040B000F4D1D4F82431012B19D0D4F82411D1B97A
:1040C000D4F81C31D4F820219342D2DB0D4A02925D
:1040D0000197D4F82421009200223146284604F0AA
:1040E0000DF90023C4F82431C4F81C31C1E70023C2
:1040F000C4F82431E1E7044818F074FFE0E700BF9A
:104100002CFB0110D53F00105CFB011008B5024BE1
:10411000002203F0CAFC08BD38F5011008B5024BB7
:10412000012203F0C2FC08BDA0F5011038B5054618
:104130000C4600220023C0E92C231E4B93FBF1F315
:10414000C0F8B8300023C0F82431C0F81C31C829A9
:1041500021D00ADC322913D0642904D10221C0F80D
:104160002011042011E0184614E0B1F5C87F05D1F4
:104170000823C0F820310021022006E0002009E0D9
:104180000123C0F82031032105202A4606F0A9F8B2
:1041900038B1002038BD0423C0F8203101210320AC
:1041A000F3E7D5F820212146034818F01BFF012032
:1041B000F0E700BFA08601007CFB011010B584B0C1
:1041C000044600238DF80F308DF80E3001602A4B25
:1041D00083602A4BC3602A4B036106F09FFB10B13A
:1041E000002004B010BD214602A806F0F5FA08B17F
:1041F0000020F6E7234601220DF10E01022005F012
:1042000005FF08B10020ECE70094002301221146CD
:10421000184606F0FBF808B10020E2E7214601202D
:1042200006F0D3F808B10020DBE7234601220DF1A8
:104230000F012E2005F0EAFE08B10020D1E722464A
:104240000321052006F04DF808B10020C9E72346F8
:1042500001221146104606F088F808B10020C0E798
:104260002146012006F008F808B10020B9E705480A
:1042700018F01EFF0120B4E7B7420010934200106F
:1042800089420010B8FB011008B580B211F00AFA9B
:1042900008BD00B585B0844618460A23029392B241
:1042A0000192009101236246152108F02BFF40B2D4
:1042B00005B05DF804FB00B585B0844618460A23B6
:1042C000029392B20192009101236246152108F0F7
:1042D00065FF40B205B05DF804FB0000F0B589B0A1
:1042E00004460D46164604AB012203F017FA30B916
:1042F000049B032B63D8DFE803F00A464143314BAC
:1043000003222946204603F0D0FB012644E0322751
:104310002946204603F0E4FA002836D12A4B0393BD
:104320000123029307EE907AF8EEE77ACDED017A59
:10433000072300930223254A2946204603F006FB63
:10434000B0F1000C2BDB224A05AB07CA83E807005B
:104350000193032300931F4B62462946204603F036
:1043600047FB39463046FFF7E1FE0646F8B11A4BE7
:1043700000222946204603F098FB0DE0C827C7E736
:104380004FF4C877C4E76427C2E7144B03222946D9
:10439000204603F08AFB0126304609B0F0BD104BE1
:1043A00003222946204603F080FB0126F4E70D4B4B
:1043B00003222946204603F078FB0126ECE700267D
:1043C000EAE700BFF4F80110DCFB0110D8FB011094
:1043D00024FC011064F901106CF901100CF60110B5
:1043E00050F60110E0FB0110F0B595B004460E4602
:1043F0004FF4947017F0F6FF002852D005464FF4A2
:104400009472002118F054FF31462846FFF7D6FE7B
:104410000646002838D0002309930A930B930C9387
:104420000D930E930F930995204B0B93204B0C93F8
:10443000204B0D93204B0E93EE460DF1240CBCE85F
:104440000F00AEE80F009CE807008EE807001B4B4A
:104450001B4A0121204602F0BBFF071E23DB10AEE2
:10446000184B0FCB86E80F0004230393029600231A
:104470000193154B0093154B01223946204603F05A
:10448000E2F838B1002602E0284617F0B3FF3046C4
:1044900015B0F0BD2A4639462046FFF71FFF0646F5
:1044A000F5E70026F3E70026F1E700BFDD42001044
:1044B0001D4100100D41001049400010FCFB01108F
:1044C00014FC011030FC0110B8F90110ACF9011016
:1044D00010B582B00468019300920B46027F418BB5
:1044E000C068A04702B010BD10B582B04468019307
:1044F00000920B46027F418BC068A04702B010BDFE
:1045000010B582B0044601230DF107020921FFF71F
:10451000DFFF10B1002002B010BD9DF8073043F05E
:104520000C038DF8073001230DF107020921204605
:10453000FFF7DAFF08B90120EDE70020EBE710B53F
:1045400082B0044601230DF107020921FFF7C0FFE5
:1045500010B1002002B010BD9DF8073023F00C030D
:104560008DF8073001230DF1070209212046FFF7DE
:10457000BBFF08B90120EDE70020EBE770B582B082
:1045800006460C464B78CA7813438DF8073000F185
:104590000C0501230DF1070206212846FFF7A4FFB1
:1045A00010B1002002B070BDA378227913438DF8BA
:1045B000073001230DF1070206212846FFF794FF7B
:1045C000002858D1E378072B08D8DFE803F004105F
:1045D00014181C2024284FF40023B3632379072BDD
:1045E0004BD8DFE803F020252A2F34393E434FF41F
:1045F000C013B363F2E74FF46013B363EEE74FF415
:10460000F003B363EAE74FF47833B363E6E74FF4BC
:10461000FC23B363E2E74FF47E23B363DEE74FF49A
:10462000FF13B363DAE74FF4002373630120B9E7A4
:104630004FF4C01373630120B4E74FF46013736346
:104640000120AFE74FF4F00373630120AAE74FF4B2
:10465000783373630120A5E74FF4FC2373630120D3
:10466000A0E74FF47E23736301209BE74FF4FF1311
:104670007363012096E7002094E7012092E7000091
:104680002DE9F04186B005460E4617461C46FEF75A
:1046900085FA236EA26E9B18626E42F1000C98425E
:1046A00071EB0C0C02D206B0BDE8F08120666166A9
:1046B00000238DF816308DF8173004F10C080DF139
:1046C00017020DF11601404612F06CFD0028EAD1E8
:1046D0009DF81630002BE6D09DF81730002BE2D065
:1046E000221D2146404612F0D6FD30B10A4818F08E
:1046F000DFFCA3680133A360D5E7084B0293019761
:10470000A3680093012300223146284603F0F6FDFA
:104710000023A360C7E700BF40FC01102147001041
:1047200008B5029A0499039802F060F908BD0000E8
:1047300008B5024B002203F0B8F908BD38F50110A6
:1047400008B5024B012203F0B0F908BDA0F5011035
:1047500008B577220C3012F0F5FD08B1002008BD35
:10476000024818F0A5FC0120F9E700BF70FC011019
:104770002DE9F04184B004460D46002303604360F8
:1047800000F10C0601A9304612F0C8FC002840F0E8
:104790008C8000238DF80A3007238DF80430202DFB
:1047A0005ED011DD402D69D0802D21D13046FFF73C
:1047B000C6FE00238DF807308DF8083070238DF881
:1047C00005308DF8063022E0082D13D0102D0DD1C4
:1047D0003046FFF7B4FE03238DF807308DF808301C
:1047E00040238DF805308DF8063010E000275DE09D
:1047F00000275BE03046FFF783FE04238DF8073087
:104800008DF8083030238DF805308DF80630002201
:104810000023C4E91823274B93FBF5F3A36601A9F2
:10482000304612F087FCB8BB01A92046FFF7A6FE70
:104830000746B0B304F1040842462146304612F060
:104840002AFD42462146304612F025FD42462146C9
:10485000304612F020FD2946174818F0C3FB25E02A
:104860003046FFF76CFE02238DF807308DF80830D4
:1048700050238DF805308DF80630C8E73046FFF735
:104880005EFE01238DF807308DF8083060238DF827
:1048900005308DF80630BAE7084818F009FC002703
:1048A00004E0074818F004FC00E00027384604B094
:1048B000BDE8F081A0860100C8FC011090FC011049
:1048C000B4FC0110F0B589B004460D46164605ABA0
:1048D000012202F023FF38B9059B042B6CD8DFE8D6
:1048E00003F00B4842444600344B0322294620463D
:1048F00003F0DBF8012645E008272946204602F0B0
:10490000EFFF002837D1002303930123029307EE22
:10491000907AF8EEE77ACDED017A0723009302232F
:10492000274A2946204603F011F8021E2DDB2549AF
:1049300006AB03C983E80300019302230093224BD3
:104940002946204603F054F838BB39463046FFF775
:104950000FFF064648BB1D4B01222946204603F0A7
:10496000A4F801260EE02027C7E74027C5E78027E7
:10497000C3E71027C1E7164B03222946204603F060
:1049800094F80126304609B0F0BD124B03222946A7
:10499000204603F08AF80126F4E70F4B032229464C
:1049A000204603F082F80126ECE70C4B0022294652
:1049B000204603F07AF8E5E70026E3E7F4F8011073
:1049C000F0FC0110E8FD0110F8FC011020FD0110C1
:1049D0000CF6011050F6011000FD01106CF90110E9
:1049E0002DE9F04194B004460E46702017F0FAFC11
:1049F000002855D005467022002118F059FC314698
:104A00002846FFF7A5FE064600283BD00023089362
:104A100009930A930B930C930D930E930895224BD5
:104A20000A93224B0B93224B0C93224B0D93EE4691
:104A30000DF1200CBCE80F00AEE80F009CE8070069
:104A40008EE807001C4B1D4A0121204602F0C0FCE5
:104A5000B0F1000826DB0FAE194F0FCF0FC63B6831
:104A60003360052303930FAB029303230193154B8C
:104A70000093154B01224146204602F0E4FD40B16F
:104A8000002602E0284617F0B5FC304614B0BDE819
:104A9000F0812A4641462046FFF714FF0646F4E718
:104AA0000026F2E70026F0E7C54800104147001055
:104AB00031470010814600103CFD011060FD0110DF
:104AC000F0FD011064FD0110ACF901109C4603F5E6
:104AD000805393F8D030DBB110B584B00CF580531F
:104AE00093F8D1308BB14FF400730A4C02940192C9
:104AF0000CF58054D4F8D4200092002203F0FEFB81
:104B00000023C4F8D43004B010BD4FF48063ECE748
:104B1000704700BF194B001010B5049C04F580537A
:104B2000029A1968039801F061FF20B104F58054DE
:104B3000002384F8D03010BD38B500F580531B7ABF
:104B400013B90025284638BD00F5805300221A729B
:104B50001C460C34204608F0E5FD05460028F1D13E
:104B6000204609F017FA05460028EBD1204608F048
:104B7000EEFD05460028E5D1204608F01FFDE1E7DF
:104B800038B504460D461846FFF7D6FF30B9074B37
:104B900000222946204602F088FF38BD044B03223C
:104BA0002946204602F081FFF7E700BF38F50110E3
:104BB00004FE011008B500F5805393F8D030FBB91E
:104BC00000F58053D3F8D830A3B900F58053012203
:104BD00083F8D02000F580531A68596819605A602C
:104BE00000F580534FF48062196818460C3009F0C4
:104BF00047F908BD00F58052013BC2F8D830E9E71B
:104C000000F58052D2F8D4300133C2F8D430E7E74F
:104C10002DE9F04383B004460E4617461D46FFF7C4
:104C20008BFF804618B1404603B0BDE8F08341F2E7
:104C3000DC020021204618F03BFB04F580531C6089
:104C400004F500625A60022D14BF0022012283F88D
:104C5000D1200422C3F8D8202448066040230371E1
:104C60004571102383717B001BB20381438104F5DE
:104C7000805909F10C0900901D4B542255214846DA
:104C800008F008FE80460028CDD17301194AB2FB16
:104C9000F3F240F2017343EA0243174A13612246DA
:104CA0001649484609F095F9012303221021484688
:104CB00009F09AF9484608F0FFFC80460028B2D176
:104CC00004F580534FF480621968484609F0D8F81B
:104CD00080460028A7D104F58054012323723B4667
:104CE00032462946064818F07DF99CE71030020844
:104CF00008300208000077010000A040B54B00100A
:104D00002CFE011070B584B004460D461E4602AB61
:104D10001E2202F003FD0DF107031422294620464E
:104D200002F07FFC03AB0A222946204602F0FDFB7D
:104D3000029B93B94FF4FA51039A9DF807307BB167
:104D400002233046FFF764FF60B90A4B012229466F
:104D5000204602F0AAFE04B070BD4FF47A51EBE792
:104D60000023EEE7044B03222946204602F09DFE75
:104D7000F1E700BFA0F5011064FE011008B5194964
:104D8000194806F0C5F908B1002008BD00221749EE
:104D9000154806F028FA08B10020F6E7012211466E
:104DA000114806F0ECF908B10020EEE7104911486F
:104DB00006F0AEF908B10020E7E70B490D4806F010
:104DC00040FA08B10020E0E701221146094806F048
:104DD000D6F908B10020D8E7074818F069F9012092
:104DE000D3E700BF8C3802101C30020800007701A6
:104DF0005C3802100830020884FE011070B58AB0D9
:104E000004460D4606AB1E2202F088FC002847D15E
:104E1000069B002B4CD0012B74D14FF47A560DF128
:104E2000170314222946204602F0FBFB002842D13A
:104E30002946204602F054FD002844D19DF8173041
:104E4000002B48D04FF40073304A0392029307EED0
:104E5000906AF8EEE77ACDED017A042300930223FD
:104E60002B4A2946204602F071FD021E36DB9DF8D2
:104E70001730002B3AD0274907AB03C983E803005A
:104E8000019302230093244B2946204602F0B0FDF3
:104E9000224B00222946204602F007FE012032E084
:104EA0001F4B03222946204602F0FFFD01202AE085
:104EB0004FF4FA56B3E71B4B03222946204602F073
:104EC000F4FD01201FE0184B03222946204602F082
:104ED000ECFD012017E04FF48063B5E7134B03228C
:104EE0002946204602F0E1FD01200CE0104B099319
:104EF00009AB019301230093074B2946204602F09A
:104F000077FDC5E700200AB070BD00BFCCFE0110E0
:104F1000C4FE011044FF0110F8FC01106CF90110EF
:104F2000F4F80110A4FE01100CF6011050F6011067
:104F3000D4FE011070B592B0044641F2DC0017F0C7
:104F400051FA00286ED0064641F2DC02002118F02A
:104F5000AFF93046FFF712FF0546002832D0002394
:104F600009930A930B930C930D930E930F93099649
:104F70002E4B0B932E4B0C932E4B0D932E4B0E93CF
:104F8000EE460DF1240CBCE80F00AEE80F009CE8E3
:104F900007008EE80700294B294A0121204602F02C
:104FA00017FA051E40DB0A220392002302930192A6
:104FB000244B0093244B2946204602F05FFA38B177
:104FC000002502E0304617F015FA284612B070BDF1
:104FD000002301931D4B00931D4B142229462046AC
:104FE00002F0E1FA08B10025EFE710AB194A92E8A8
:104FF000030083E80300022203920293012301933A
:10500000154B0093154B1E222946204602F01BFB30
:1050100008B10025D9E7324629462046FFF7EEFEC3
:105020000546D2E70025D0E70025CEE7FD4D00106C
:10503000054D0010814B0010CD4A0010DCFE011020
:10504000E0FE0110F4FE0110ECFE011014FF01104F
:105050000CFF01104CFF0110B8F90110ACF9011060
:105060002DE9F04F97B0FDF74BFDFDF7ABFD0028A4
:105070007CD0FDF752FD00287CD00123129302233F
:1050800013933E4B14933E4B1593FDF759FD054684
:1050900016AB13E903008DE8030012AB0CCB2946D5
:1050A000384802F065F90446374B8364374817F0F7
:1050B00099FF374817F0FCFF2169364817F092FF37
:1050C00029786A78AB78E8780F902E7910966F7906
:1050D0001197A87995F807C095F808E06E7AAF7A2D
:1050E00095F80B8095F80C9095F80DA095F80EB0FA
:1050F000ED7B0C95CDF82CB0CDF828A0CDF8249000
:10510000CDF8208007970696CDF814E0CDF810C0B2
:105110000390119F0297109E01960F9800901E48D1
:1051200017F060FFE369A2696169206A00901B487B
:1051300017F058FFE36AA26A616A206B0090184872
:1051400017F050FF204603F09FF9204603F06EFA57
:105150000546144817F0ACFF0020FDF771FD05F17E
:105160001402291D204602F0B3FFF8E70A20FDF7DC
:1051700079FD7EE70920FDF775FD7EE70BFE340122
:105180007B0D020054FF0110692B001070FF01100D
:105190007CFF0110ACFF0110CCFF01102C000210AD
:1051A0005800021084000210F0B402890468238AB7
:1051B0009A4280F091802368418953F82130C3F3EB
:1051C0000722827503F00305012D3DD0022D4ED03C
:1051D000C5B1D4F800C04D1C5CF825508E1C5CF89D
:1051E0002660CF1C5CF8277004313CF821108182C6
:1051F000C3F38503290A890189B20B43038269B28B
:1052000047820AE001218182C3F385010182C3F351
:105210000361C3F307461B0F43824368002B3CD056
:105220003344836100293BD0591A016202F0C00166
:10523000802945D0C36102F00E02082A45D0002320
:1052400043620120F0BC70472568013155F82150B8
:10525000C3F30B418182C3F385012E0F41EA86110E
:105260000182190FAEB2C5F30B454582D5E7276819
:105270004D1C57F825508E1C57F82660033157F8FF
:105280002170190C8182C3F38503290A890189B22F
:105290000B43038269B24782BFE783610362CAE7B7
:1052A00002F03001202902D000210162BEE712F095
:1052B000C00101D08029F7D100F114010162B5E7E6
:1052C000002BB7D01B68C361B5E76368C28953F888
:1052D000223043620120B5E70020B3E703890133A0
:1052E0009BB203810268118A8B4205D3002303819C
:1052F0004381C381838170471368B0F80AC053F8B3
:105300002C100A0A01F0030101238B401CFA83F3DD
:105310004381838912F0300F0CBF012100210B441F
:105320008381C38902F00E02082A08BF0133C381BA
:105330007047704770B504460E4615462822002176
:1053400017F0B6FF266065602046FFF72DFF70BDA1
:1053500038B505460C460B6899680B681B681B0A34
:1053600003F0C003802B05D06268FFF7E3FF0C3425
:105370002C6238BD221DFFF7DDFFF8E710B50446AB
:10538000FFF7ACFF2046FFF70FFF2089003818BF5A
:10539000012010BD038A8B422ED070B504460D4605
:1053A0000268918AA94229D30689AB4205D9138A9A
:1053B000038102E02389B34219D02046FFF78EFF14
:1053C00023681B68628953F8223085EA930313F03F
:1053D0003F0FEFD12046FFF7E7FE238AAB42E9D12A
:1053E000A37D03F00F030A2BE4D0012003E0204645
:1053F000FFF7DAFE002070BD012070470020FAE7B9
:1054000038B5837D03F00F030A2B19D004460589B4
:105410002046FFF763FF23681B68628953F8223038
:10542000C3F303230A2B07D02389AB42F0D12046D4
:10543000FFF7BAFE002002E02046FFF7B5FE38BDB8
:105440000120FCE738B504460D461046FFF771FF12
:10545000024629462046FFF76DFF38BD10B50446C9
:105460000846FFF766FF01462046FFF771FF10BDB3
:105470000B461146528A082A01D001207047CA699A
:105480006AB110B520B1146814B10432A04710BD40
:105490003BB114683CB104321846A047F7E701203D
:1054A00070470120F3E70120F1E7000010B5044642
:1054B00083683BB103680122984750B1A368013B60
:1054C000A36010BDC36813B1E3600020F9E7044B8B
:1054D000FAE7E3680BB1E360F3E7024BFBE700BFD9
:1054E0000C0402101C04021010B543689C184460A0
:1054F00019B10846194617F0DBFF012010BD08B5A9
:105500008B7D03F00E03062B02D0082B03D008BDC1
:1055100000230360FBE74A8A002117F0C9FEF6E783
:1055200070B504460868AAB10D46114693B1B2F5AC
:10553000803F02D2B3F5803F04D30022A3FB01C613
:105540007EB982B903FB01F116F0FEFF90B128602D
:10555000012003E0E36813B1E360002070BD094B54
:10556000FAE70122EDE7E36813B1E3600020F5E715
:10557000054BFAE7E36813B1E3600020EEE7034B65
:10558000FAE700BF28040210380402104804021091
:10559000002A37D030B585B00446154669B1A368F6
:1055A000AB421ED323682A462046984708B3A36817
:1055B000AB4224D20023A36017E00268124B9A4248
:1055C000EDD0102D07D9102269462046FFF7E0FFE5
:1055D00058B1103DF5E72A4669462046FFF7D8FF47
:1055E00003E0E3681BB1E360002005B030BD074B6A
:1055F000F9E7E3680BB1E360F7E7054BFBE75B1BFB
:10560000A360F2E701207047E95400100C04021077
:105610001C04021010B582B0044601220DF10701EE
:105620002046FFF7B5FF024618B19DF90730002B61
:10563000F3DB104602B010BD2DE9F04107461546D8
:105640001E46D3F80080012924D005292BD021B192
:10565000FB6883B3FB60002322E00023336000E09B
:105660000D4634680134346044450CD80122294683
:105670003846FFF78DFF034690B1294611F9012BFB
:10568000002AEDDB0CE0FB6813B1FB60002307E0B0
:105690000A4BFAE708221A602946FFF779FF03460A
:1056A0001846BDE8F08104221A6029463846FFF703
:1056B0006FFF0346F4E7024BCCE700BF580402102B
:1056C0006804021010B4044C04604160826000223F
:1056D000C2605DF8044B7047E95400102DE9F041B9
:1056E00082B005460F460DF10701FFF7DFFE804649
:1056F00030B19DF807609DF90730002B04DB3E6058
:10570000404602B0BDE8F08106F07F0607240EE0B7
:10571000012217E093421ED0002300E001233F2C1A
:105720001BD8D3B107349DF90730002BE7DA0DF110
:1057300007012846FFF7BAFEB0B31F2C15D93E2C3F
:10574000E6D8FF229DF8073013F07F0FE6D0002E39
:10575000E0DB0023E3E70123E1E7EB681BB1EB604B
:105760004FF00008CCE7114BF9E71C2C06D09DF850
:10577000073003F07F03A3401E43D3E79DF80730B3
:1057800013F0700F03D003F07802782A04D103F0ED
:105790000F03A3401E43C5E7EB681BB1EB604FF05E
:1057A0000008ADE7014BF9E78046A9E7580402106D
:1057B00010B582B0044601A9FFF790FF08B902B006
:1057C00010BD019A00212046FFF7E2FEF7E7000036
:1057D00030B583B004460D4601A9FFF77FFF0346AD
:1057E000E0B1019BB3F5803F14D29A1C1BD2A97D76
:1057F00001F0C00180291DD06B8A93422FD3E96943
:10580000BDF8043021F8023B019A2046FFF7C0FEA4
:10581000034603E0E36823B1E3600023184603B0C6
:1058200030BD124BF8E7E36813B1E3600023F5E7FE
:105830000F4BFAE7A1688B4206D9E36813B1E36026
:105840000023EBE70B4BFAE70123E9692046FFF75A
:1058500067FE03460028E1D0EB691968D0E7E368EA
:1058600013B1E3600023D9E7004BFAE77C04021090
:10587000380402100C04021070B582B005460C46C4
:10588000CE6901A9FFF72AFF0346B0B1019BB3F12E
:10589000FF3F15D05A1C1AD2A17D01F0C00180290A
:1058A0001CD0638A93422ED3019B0022F254019AAA
:1058B00031462846FFF76CFE0346184602B070BD1D
:1058C000EB6813B1EB600023F7E7124BFAE7EB68E4
:1058D00013B1EB600023F0E70E4BFAE7A9688B42A7
:1058E00006D9EB6813B1EB600023E6E70A4BFAE751
:1058F0000123E1692846FFF713FE03460028DCD0A8
:10590000E3691E68D0E7EB6813B1EB600023D4E7CE
:10591000024BFAE7380402100C0402108C04021047
:1059200070B582B004460D4601A9FFF7D7FE0646C2
:1059300058B1019BB3F5803F0AD283B16A8A934282
:1059400015D0E3688BB1E3600026304602B070BD2D
:10595000E36813B1E3600026F7E7084BFAE76A8AC9
:105960000021E86917F0A4FCEFE7054BEBE7E969D4
:105970002046FFF70DFE0646E7E700BF7C04021055
:105980009C0402102DE9F04182B0074688460025AC
:105990002E462C4615E0194B24E09DF807C00CF06C
:1059A0007F02A4F12003C4F1200102FA03F322FADA
:1059B00001F10B43A24015431E4307341CF0800F36
:1059C00014D00DF107013846FFF770FD864688B107
:1059D0003E2CE2D99DF8073013F0FE0FDDD0FB68B6
:1059E000002BD8D0FB604FF0000E03E0C8F8005049
:1059F000C8F80460704602B0BDE8F0815804021097
:105A00002DE9F04182B01D4600232B700B7013600E
:105A100083683BB901232B704FF00008404602B069
:105A2000BDE8F08104460E46174601A9FFF756FE71
:105A3000804630B1019BDA083A6003F00703337007
:105A4000ECE72268074B9A42E8D0A368002BE5D127
:105A50000549E06817F0CEFC08B90023E360012394
:105A60002B70DBE7E95400101C04021008B505296F
:105A700014D8DFE801F003060B13130EFFF7CAFD7D
:105A800008BD08220021FFF783FDF9E7FFF790FE2C
:105A9000F6E704220021FFF77BFDF1E7C36813B1AD
:105AA000C3600020ECE7014BFAE700BF6804021076
:105AB00030B583B004460D4601A9FFF70FFE8446BA
:105AC00050B194E80F0085E80F00019B9A4206D37D
:105AD000AB60A268D21AA260604603B030BDE36832
:105AE0001BB1E3604FF0000CF6E7014BF9E700BF94
:105AF000C004021038B505460C468A682AB96368A6
:105B00006B60E368EB60012038BD00212046FFF7A1
:105B10003FFD0028F3D1F7E770B58CB00546136858
:105B2000DB68FBB11446022920D00A23049304AB9E
:105B300005AAFFF781FD034688B16E46049A05A9C0
:105B40003046FFF7BFFD08AD96E80F0085E80F006F
:105B50002368DB68224600212846984703461846FA
:105B60000CB070BDFFF782FF0346F8E708A9FFF706
:105B70009FFF03460028F2D00A9E2368DB68224676
:105B8000002108A89847034648B10A9B0BB1B342CD
:105B9000F2D308A92846FFF7ADFF0346DFE7EA681E
:105BA0000AB1EA60DBE70B9A002AFAD1004AF8E76B
:105BB000D804021091B100B58BB00A460146684680
:105BC000FFF7B8FB38B1684600F009F86846FFF700
:105BD000D5FB0028F7D10BB05DF804FB7047F0B59A
:105BE0008BB00446857D05F03007302F0DD005F0D1
:105BF0000F030A2B0FD005F00E03082B1BD005F066
:105C0000C003802B3FD00BB0F0BD036A1A88038A13
:105C10009A42F8D1EBE7E3691E6800E0B668002E0F
:105C2000EDD031466846FFF793FB0028F6D0684672
:105C3000FFF7D5FFF2E705F0C003402BDFD0802B44
:105C400007D0A269E261202F07D00126E369BBB922
:105C5000D5E7A2691268E261F5E7226A1688002B8F
:105C6000F4D1A38AB342F1D21E46EFE7E169606A3C
:105C7000FFF7A0FFE369628A1344E361013EB6B215
:105C8000002EF3D1BBE705F03E05262D09D0202FCD
:105C900019D0A369186816F0ADFBA36900221A6039
:105CA000B1E7A3691D68236A1E8809E0286816F019
:105CB000A1FB2B46002243F8042B013EB6B21D4641
:105CC000002EF3D1E3E7236A00221A80E1E7000007
:105CD00070B58AB005460C46EC468E46BEE80F000D
:105CE000ACE80F00BEE80F00ACE80F009EE8030030
:105CF0008CE80300236A1988238AC9B199421BD012
:105D00006846FFF747FB064628B9EB680BB1EB6026
:105D10000FE00A4BFBE76846FFF761FFA37D03F046
:105D2000C003802B05D1A26900231360E36100E06A
:105D3000012630460AB070BD0126FAE7E8040210D9
:105D400010B582B00C4601A9FFF7C8FC20B1019B39
:105D5000003B18BF0123237002B010BD08B5C9690C
:105D6000FFF7EEFF08BD10B582B00C466946FFF79D
:105D700009FE60B1009B019A13F0010F09D05B0886
:105D800043EAC273DB436FEA52022360626002B0EF
:105D900010BD5B0843EAC273520823606260F6E7F5
:105DA00030B583B005460C468B7D03F00F03032B03
:105DB0002CD06946FFF7E6FD0346002838D0A37DC6
:105DC00003F00F03012B28D0628A082A2CD80099EF
:105DD0000198022B31D0002834DBD3009BB2013B69
:105DE0009BB2C3F1200EA3F1200CD94000FA0EFEA5
:105DF00041EA0E0120FA0CFC41EA0C01D8400143B3
:105E000025D0EB680BB3EB60002311E06946FFF788
:105E1000AAFF03460028D2D10AE0628A042AD3D816
:105E2000009AD2170192CFE7EB6823B1EB60002311
:105E3000184603B030BD094BF8E7490841EAC07184
:105E40004008CAE7C943C043C7E7054BDBE76946DB
:105E5000E06917F02DFB0123EAE700BFFC04021004
:105E60001005021010B582B00C4604220DEB0201A1
:105E7000FFF78EFB08B1019B236002B010BD10B587
:105E800082B00C4608226946FFF782FB18B1DDE9B3
:105E90000023C4E9002302B010BD000008B58C4601
:105EA0001146937D03F00F030B2B7FD8DFE803F03F
:105EB0000617171728394A5764647E710CF1FF3CA6
:105EC0005FFA8CFCBCF1FD0F06D8C36813B1C36048
:105ED00000206FE0394BFAE7FFF740FF6AE00CF172
:105EE000FF3C5FFA8CFCBCF1FD0F06D8C36813B110
:105EF000C36000205EE0314BFAE7FFF751FF59E045
:105F0000BCF1050F09D0BCF1FF0F06D0C36813B177
:105F1000C36000204EE0294BFAE7C969FFF7A2FFF2
:105F200048E0BCF1010F09D0BCF1FF0F06D0C368F7
:105F300013B1C36000203DE0204BFAE7C969FFF7C9
:105F40009EFF37E0BCF1020F06D0C36813B1C360F7
:105F500000202FE0194BFAE7FFF73AFC2AE0BCF1EA
:105F6000020F06D0C36813B1C360002022E0134BB8
:105F7000FAE7FFF781FC1DE0BCF1020F06D0C36811
:105F800013B1C360002015E00C4BFAE700F026FCCB
:105F900010E0BCF1020F06D0C36813B1C36000204B
:105FA00008E0064BFAE7FFF7BBFC03E0C36813B158
:105FB000C360002008BD024BFAE700BF24050210B1
:105FC000340502102DE9F04184B005460E46144612
:105FD000927D02F03003202B47D025D80BB1102B37
:105FE00024D102F00E02082A2AD0A37D03F0300348
:105FF000302B2DD0A37D03F00E03062B2CD00123D4
:10600000628AA1692846FFF78BFA0746A0B1A36907
:106010001868E0612146FFF772FA224631462846A9
:10602000FFF73CFF074607E0302BDAD0EB68002B88
:1060300000F09E80EB600027384604B0BDE8F08198
:10604000A3691B68002BD0D02046FFF7C8FDCCE722
:10605000236A228A1A80CDE7A369E361224631468A
:106060002846FFF71BFF0746E6E7022928D0D4F8A9
:106070002080B8F800304FF6FF72934271D00133A0
:10608000628AA1692846FFF74BFA07460028D3D059
:10609000A3691B68628AB8F8001001FB0233E36150
:1060A000B8F800300133A8F800302146E069FFF766
:1060B00026FA224631462846FFF7F0FE0746BBE7A0
:1060C00002F00F02052AD2D8266AB6F80080694687
:1060D000FFF7EEFC074638BBAEE7264BEB60002728
:1060E00069462846FFF706FD0028A5D10746A3E725
:1060F00008F101084346A1696846FFF711FA50B359
:10610000A3691868638A328802FB0300E06120B348
:106110002146FFF7F4F92246FF216846FFF7BEFE4D
:10612000E8B1338801333380029B002BD8D032880A
:106130004FF6FF718A42D0D001324245E0D9013B8F
:10614000628AB3FBF2F30133C8F57F41FF31994214
:10615000CED99844CEE70746C2E70027C0E70746F6
:10616000BEE7EB6813B1EB60002765E7014BFAE788
:10617000014B5FE74805021034050210F0B58BB003
:1061800005460E461446927D02F03003202B2CD09B
:106190000ED81BB3102B40F09F80236A0BB1012255
:1061A0001A70224631462846FFF778FE074619E066
:1061B000302B40F0918002F00E02082A04D1236AAD
:1061C0001A88238A9A4265D1236A228A1A80224633
:1061D00031462846FFF762FE074603E02246FFF7F6
:1061E0005DFE074638460BB0F0BD022912D0236A87
:1061F000A269618A188800FB0122E2611A88511C99
:106200001980A38A9A423ED3EB68002B39D0EB6009
:106210000027E7E702F00F02052AE8D8266AA369FB
:10622000628A318801FB0233E3616946FFF740FC73
:1062300007460028D6D0029B93B13288A38A9A429F
:106240000ED22246FF216846FFF728FE38B1338878
:1062500001333380E369628A1344E361EBE7074665
:10626000029B33B1EB6813B1EB600027BAE71E4B1A
:10627000FAE769462846FFF73DFC0028B2D10746F9
:10628000B0E7194BC3E7224631462846FFF706FE22
:106290000746A7E7628A0021E06917F009F8616AFA
:1062A0008B687BB1E2696846FFF744F800288BD021
:1062B000684600F051F80746002885D1EB684BB1DD
:1062C000EB608FE7CB68002BECD14B681B68002B91
:1062D000E8D179E7054BF3E7EB6813B1EB600027F2
:1062E00080E7034BFAE700BF60050210700502105B
:1062F0003405021070B505460E461446937D03F032
:106300003003302B0CD0A37D03F0C003402B19D0F9
:10631000802B11D053B1EB68D3B1EB6000200AE0C1
:106320001146FFF7D5FC0028EDD104E022463146A6
:106330002846FFF723FF70BD224631462846FFF767
:1063400041FEF8E7224631462846FFF7E5FBF2E733
:10635000004BE2E73405021070B58AB00446002312
:10636000069307930893099305938DF813300368F8
:106370009968E1B16E464FF0FF323046FFF7A2F95F
:1063800006AD96E80F0085E80F000DF1120305AA8F
:106390000DF113012846FFF733FB054638B92846AF
:1063A0000AB070BD2046FEF7E9FF0028F7D020466E
:1063B00000F023F805460028F1D0059B002BF1D012
:1063C000228A9342EED122469DF8131006A8FFF7C9
:1063D00091FF70B10DF1120305AA0DF1130106A88A
:1063E000FFF70EFB38B1236A002BDBD000221A70B6
:1063F000D8E70546D3E70546D1E710B58AB0837DD7
:1064000003F00F020A2A1AD013F0C0024FD103F092
:106410003003102B2BD0202B2FD0302B2DD0837D71
:1064200003F00E03082B34D1416A8B6853B3C26961
:106430006846FEF77FFF002832D1012314E0C369CC
:106440001C6800E0A46874B121466846FEF780FF2E
:106450000028F7D0002323736846FFF77DFF03462B
:106460000028EFD100E0012318460AB010BD026AEF
